:1000000012C024C023C022C021C020C01FC01EC0F7
:100010001DC01CC01BC01AC019C018C017C016C014
:1000200015C014C013C011241FBECFE5D4E0DEBF3D
:10003000CDBF10E0A0E6B0E0E2E0F1E002C0059044
:100040000D92A037B107D9F702D059C0D9CFEF929E
:10005000FF920F931F93DF93CF93CDB7DEB76097D7
:100060000FB6F894DEBF0FBECDBF8FEF81BBDE01B0
:100070001196E8E6F0E088E001900D928150E1F7FA
:10008000DE011996E0E6F0E088E001900D928150E3
:10009000E1F720E030E07E010894E11CF11C8E01C4
:1000A000075F1F4F48EA51E6BE01655F7F4F24C0DE
:1000B000CA010197F1F72230310569F0233031058B
:1000C00029F02130310561F4808106C0808182BB36
:1000D000CA010197F1F78C9182BBCA010197F1F730
:1000E00032961296E617F70719F72F5F3F4F243025
:1000F000310514F020E030E0F701D801D9CFF894B1
:02010000FFCF2F
:10010200030006000C0009000200040008000100C0
:00000001FF
